:100000000C9434000C9449000C9449000C94490061
:100010000C9449000C9449000C9449000C9449003C
:100020000C9449000C9449000C9449000C9449002C
:100030000C9449000C9449000C9449000C9449001C
:100040000C9449000C9449000C9449000C9449000C
:100050000C9449000C9449000C9449000C944900FC
:100060000C9449000C94490011241FBECFEFD8E036
:10007000DEBFCDBF11E0A0E0B1E0E6E4F8E002C0F1
:1000800005900D92AA30B107D9F70E948E000C940A
:1000900021040C94000085E480937C0087E8809321
:1000A0007A00089580917A00806480937A0080912C
:1000B0007A0084FFFCCF80917800909179000895B8
:1000C00088E08093C10086E08093C20087E6809339
:1000D000C40008959091C00095FFFCCF8093C600A6
:1000E00008951F93CF93DF93EC0110E0812F90E0F0
:1000F000FE0101900020E9F73197EC1BFD0B8E17F4
:100100009F0720F0DF91CF911F9108958C0F9D1FC5
:10011000FC0180810E946A001F5FE8CFCF93DF93CC
:10012000CDB7DEB760970FB6F894DEBF0FBECDBF78
:100130008AE0E0E0F1E0DE01119601900D928A95EF
:10014000E1F78FEF8AB984B984E088B90E944B0047
:100150000AE010E024E6E22EF12C3FEED32E47EF2A
:10016000C42E5BEFB52E69E3762E7DEFA72E0E949D
:1001700052004C014AE0BE01655F7F4F0E94EC03D4
:1001800085E0889DB001899D700D112490E080E08C
:100190000E94F1022AE037ED43E251E40E94490255
:1001A00020E030E048E452E40E94DC0120E030E04E
:1001B00040E251E40E947F030E94BB02FB01329B9C
:1001C00077C0072E000C880B990B0E94F30220E0E9
:1001D00030E040E151E40E947F0320E030E048E459
:1001E00052E40E94490220E030E040E052E40E94E4
:1001F000DD0120E030E040E251E40E947F030E94F4
:10020000BB02FB01CB01B8010E94B401282FCB0136
:10021000B8010E94B401382FCF01B7010E94B40188
:10022000CB01B8010E94B401882E61E746E050E09E
:1002300081E090E08C0F9D1F880D911D4C01A1E085
:10024000B0E0AC0FBD1FA30FB11DE1E0F0E0EC0F7B
:10025000FD1FE20FF11D9F017FEFF40180818BB93B
:10026000D5B88FE39FE10197F1F700C000008C91B2
:1002700080688BB9C5B8EFE3FFE13197F1F700C0B3
:100280000000F90180818BB9B5B88FE39FE1019738
:10029000F1F700C000006BB9A5B8EFE3FFE13197BB
:1002A000F1F700C0000075B941505109B1F65FCFB8
:1002B000CB01B8010E94B401482F282FCB01B8010F
:1002C0000E94B401982E382FCF01B7010E94B401CB
:1002D000CB01B8010E94B401882E44244394512CD0
:1002E0004C0E5D1E480E511CA1E0B0E0AC0FBD1FCE
:1002F000A90DB11D61E070E06C0F7D1F640F711DD1
:10030000AB0199249A94329902C069E38FCF66E0D9
:1003100070E0F20180818BB9D5B88FE39FE101973E
:10032000F1F700C000008C9180688BB9C5B8EFE38D
:10033000FFE13197F1F700C00000FA0180818BB92D
:10034000B5B88FE39FE10197F1F700C000007BB8DB
:10035000A5B8EFE3FFE13197F1F700C0000095B8D1
:1003600061507109B1F6CFCF97FB072E16F40094B8
:1003700007D077FD09D00E94C80107FC05D03EF4E4
:10038000909581959F4F0895709561957F4F089541
:10039000AA1BBB1B51E107C0AA1FBB1FA617B707AB
:1003A00010F0A61BB70B881F991F5A95A9F78095C7
:1003B0009095BC01CD0108955058BB27AA270E94F3
:1003C000F4010C9445030E94370338F00E943E0369
:1003D00020F039F49F3F19F426F40C9434030EF402
:1003E000E095E7FB0C942E03E92F0E94560358F387
:1003F000BA17620773078407950720F079F4A6F50A
:100400000C9478030EF4E0950B2EBA2FA02D0B015F
:10041000B90190010C01CA01A0011124FF27591B49
:1004200099F0593F50F4503E68F11A16F040A22F4F
:10043000232F342F4427585FF3CF469537952795C0
:10044000A795F0405395C9F77EF41F16BA0B620BBF
:10045000730B840BBAF09150A1F0FF0FBB1F661F06
:10046000771F881FC2F70EC0BA0F621F731F841F49
:1004700048F4879577956795B795F7959E3F08F06F
:10048000B0CF9395880F08F09927EE0F9795879531
:1004900008950E945D020C9445030E943E0358F0AB
:1004A0000E94370340F029F45F3F29F00C942E039B
:1004B00051110C9479030C9434030E94560368F391
:1004C0009923B1F3552391F3951B550BBB27AA270D
:1004D00062177307840738F09F5F5F4F220F331F47
:1004E000441FAA1FA9F335D00E2E3AF0E0E832D00F
:1004F00091505040E695001CCAF72BD0FE2F29D012
:10050000660F771F881FBB1F261737074807AB07E3
:10051000B0E809F0BB0B802DBF01FF2793585F4F58
:100520003AF09E3F510578F00C942E030C94790319
:100530005F3FE4F3983ED4F3869577956795B7953A
:10054000F7959F5FC9F7880F911D9695879597F945
:100550000895E1E0660F771F881FBB1F62177307BE
:100560008407BA0720F0621B730B840BBA0BEE1FD3
:1005700088F7E09508950E94C2026894B1110C9426
:10058000790308950E945E0388F09F5798F0B92F71
:100590009927B751B0F0E1F0660F771F881F991FB8
:1005A0001AF0BA95C9F714C0B13091F00E947803DF
:1005B000B1E008950C947803672F782F8827B85FEF
:1005C00039F0B93FCCF3869577956795B395D9F710
:1005D0003EF490958095709561957F4F8F4F9F4F1A
:1005E0000895E89409C097FB3EF490958095709526
:1005F00061957F4F8F4F9F4F9923A9F0F92F96E96F
:10060000BB279395F695879577956795B795F111E3
:10061000F8CFFAF4BB0F11F460FF1BC06F5F7F4F80
:100620008F4F9F4F16C0882311F096E911C0772392
:1006300021F09EE8872F762F05C0662371F096E89B
:10064000862F70E060E02AF09A95660F771F881F6A
:10065000DAF7880F9695879597F9089597F99F6728
:1006600080E870E060E008959FEF80EC089500243A
:100670000A941616170618060906089500240A9407
:1006800012161306140605060895092E0394000C8D
:1006900011F4882352F0BB0F40F4BF2B11F460FF1C
:1006A00004C06F5F7F4F8F4F9F4F089557FD905845
:1006B000440F551F59F05F3F71F04795880F97FB26
:1006C000991F61F09F3F79F08795089512161306E0
:1006D0001406551FF2CF4695F1DF08C0161617060F
:1006E0001806991FF1CF8695710561050894089544
:1006F000E894BB2766277727CB0197F908950E94D6
:1007000092030C9445030E94370338F00E943E0385
:1007100020F0952311F00C942E030C943403112433
:100720000C9479030E94560370F3959FC1F3950FC3
:1007300050E0551F629FF001729FBB27F00DB11D65
:10074000639FAA27F00DB11DAA1F649F6627B00DF5
:10075000A11D661F829F2227B00DA11D621F739FDE
:10076000B00DA11D621F839FA00D611D221F749FEC
:100770003327A00D611D231F849F600D211D822F33
:10078000762F6A2F11249F5750409AF0F1F088235A
:100790004AF0EE0FFF1FBB1F661F771F881F915087
:1007A0005040A9F79E3F510580F00C942E030C9405
:1007B00079035F3FE4F3983ED4F386957795679588
:1007C000B795F795E7959F5FC1F7FE2B880F911DB1
:1007D0009695879597F90895BB274A3031F4992368
:1007E00022F4BDE2909581959F4F0C94F803BB27AE
:1007F000FB015527AA27880F991FAA1FA41710F0DD
:10080000A41B83955051B9F7A05DAA3308F0A95DE8
:10081000A193009779F7B111B1931192CB010C9488
:100820001104DC01FC01672F71917723E1F7329706
:1008300004C07C916D9370836291AE17BF07C8F3BB
:060840000895F894FFCFBB
:0A0846003F065B4F666D7D077F677C
:00000001FF
